{
  "_format": "hh-sol-artifact-1",
  "contractName": "APIConsumer",
  "sourceName": "contracts/APIConsumer.sol",
  "abi": [
    {
      "inputs": [],
      "stateMutability": "nonpayable",
      "type": "constructor"
    },
    {
      "anonymous": false,
      "inputs": [
        {
          "indexed": true,
          "internalType": "bytes32",
          "name": "id",
          "type": "bytes32"
        }
      ],
      "name": "ChainlinkCancelled",
      "type": "event"
    },
    {
      "anonymous": false,
      "inputs": [
        {
          "indexed": true,
          "internalType": "bytes32",
          "name": "id",
          "type": "bytes32"
        }
      ],
      "name": "ChainlinkFulfilled",
      "type": "event"
    },
    {
      "anonymous": false,
      "inputs": [
        {
          "indexed": true,
          "internalType": "bytes32",
          "name": "id",
          "type": "bytes32"
        }
      ],
      "name": "ChainlinkRequested",
      "type": "event"
    },
    {
      "inputs": [
        {
          "internalType": "bytes32",
          "name": "_requestId",
          "type": "bytes32"
        },
        {
          "internalType": "uint256",
          "name": "_location",
          "type": "uint256"
        }
      ],
      "name": "fulfill",
      "outputs": [],
      "stateMutability": "nonpayable",
      "type": "function"
    },
    {
      "inputs": [],
      "name": "location",
      "outputs": [
        {
          "internalType": "uint256",
          "name": "",
          "type": "uint256"
        }
      ],
      "stateMutability": "view",
      "type": "function"
    },
    {
      "inputs": [],
      "name": "requestMarineData",
      "outputs": [
        {
          "internalType": "bytes32",
          "name": "requestId",
          "type": "bytes32"
        }
      ],
      "stateMutability": "nonpayable",
      "type": "function"
    },
    {
      "inputs": [
        {
          "internalType": "string",
          "name": "source",
          "type": "string"
        }
      ],
      "name": "stringToBytes32",
      "outputs": [
        {
          "internalType": "bytes32",
          "name": "result",
          "type": "bytes32"
        }
      ],
      "stateMutability": "pure",
      "type": "function"
    }
  ],
  "bytecode": "0x6080604052600160045534801561001557600080fd5b50600780546001600160a01b03191673b37424e282d7ee4abdf43b7cc9f81d5f81539ccf1790557f383564316330346334626164343239616232343766653530336430313735636460085567016345785d8a0000600955610db38061007b6000396000f3fe608060405234801561001057600080fd5b506004361061004c5760003560e01c80634357855e14610051578063516f279e14610066578063cfb5192814610081578063fa3faefd14610094575b600080fd5b61006461005f366004610a32565b61009c565b005b61006f60065481565b60405190815260200160405180910390f35b61006f61008f366004610a54565b610186565b61006f6101a3565b60008281526005602052604090205482906001600160a01b0316331461012f5760405162461bcd60e51b815260206004820152602860248201527f536f75726365206d75737420626520746865206f7261636c65206f662074686560448201527f207265717565737400000000000000000000000000000000000000000000000060648201526084015b60405180910390fd5b600081815260056020526040808220805473ffffffffffffffffffffffffffffffffffffffff191690555182917f7cc135e0cebb02c3480ae5d74d377283180a2601f8f644edf7987b009316c63a91a25060065550565b8051600090829061019a5750600092915050565b50506020015190565b6000806101ba60085430634357855e60e01b61025c565b905061023b6040518060400160405280600681526020017f73686970496400000000000000000000000000000000000000000000000000008152506040518060400160405280600781526020017f3935323533333800000000000000000000000000000000000000000000000000815250836102ed9092919063ffffffff16565b600754600954610256916001600160a01b0316908390610310565b91505090565b61029a6040805160a0810182526000808252602080830182905282840182905260608084018390528451808601909552845283015290608082015290565b6102d86040805160a0810182526000808252602080830182905282840182905260608084018390528451808601909552845283015290608082015290565b6102e481868686610348565b95945050505050565b60808301516102fc90836103d3565b608083015161030b90826103d3565b505050565b600061034084848460017f40429946000000000000000000000000000000000000000000000000000000006103ea565b949350505050565b6103866040805160a0810182526000808252602080830182905282840182905260608084018390528451808601909552845283015290608082015290565b6103968560800151610100610663565b50509183526001600160a01b031660208301527fffffffff0000000000000000000000000000000000000000000000000000000016604082015290565b6103e082600383516106ce565b61030b82826107a2565b6004546040516bffffffffffffffffffffffff193060601b166020820152603481019190915260009060540160408051808303601f190181529181528151602092830120600454606089015260008181526005909352818320805473ffffffffffffffffffffffffffffffffffffffff19166001600160a01b038b16179055905190925082917fb5e6e01e79f91267dc17b4e6314d5d4d03593d2ceee0fbb452b750bd70ea5af991a2600082600080886000015189602001518a604001518b606001518a8d60800151600001516040516024016104ce989796959493929190610b52565b60408051601f198184030181529181526020820180517bffffffffffffffffffffffffffffffffffffffffffffffffffffffff167fffffffff000000000000000000000000000000000000000000000000000000009094169390931790925260025491517f4000aea00000000000000000000000000000000000000000000000000000000081529092506001600160a01b0390911690634000aea09061057c908a9089908690600401610bce565b602060405180830381600087803b15801561059657600080fd5b505af11580156105aa573d6000803e3d6000fd5b505050506040513d601f19601f820116820180604052508101906105ce9190610a10565b6106405760405162461bcd60e51b815260206004820152602360248201527f756e61626c6520746f207472616e73666572416e6443616c6c20746f206f726160448201527f636c6500000000000000000000000000000000000000000000000000000000006064820152608401610126565b6001600460008282546106539190610bf6565b9091555091979650505050505050565b604080518082019091526060815260006020820152610683602083610d2f565b156106ab57610693602083610d2f565b61069e906020610d18565b6106a89083610bf6565b91505b506020808301829052604080518085526000815283019091019052815b92915050565b601781116106ef576106e98360e0600585901b1683176107d0565b50505050565b60ff81116107195761070c836018611fe0600586901b16176107d0565b506106e9838260016107f5565b61ffff811161074457610737836019611fe0600586901b16176107d0565b506106e9838260026107f5565b63ffffffff81116107715761076483601a611fe0600586901b16176107d0565b506106e9838260046107f5565b67ffffffffffffffff811161030b5761079583601b611fe0600586901b16176107d0565b506106e9838260086107f5565b6040805180820190915260608152600060208201526107c98384600001515184855161081b565b9392505050565b6040805180820190915260608152600060208201526107c98384600001515184610905565b604080518082019091526060815260006020820152610340848560000151518585610961565b604080518082019091526060815260006020820152825182111561083e57600080fd5b602085015161084d8386610bf6565b111561088057610880856108708760200151878661086b9190610bf6565b6109e2565b61087b906002610cf9565b6109f9565b60008086518051876020830101935080888701111561089f5787860182525b505050602084015b602084106108df57805182526108be602083610bf6565b91506108cb602082610bf6565b90506108d8602085610d18565b93506108a7565b51815160001960208690036101000a019081169019919091161790525083949350505050565b6040805180820190915260608152600060208201528360200151831061093a5761093a848560200151600261087b9190610cf9565b835180516020858301018481535080851415610957576001810182525b5093949350505050565b60408051808201909152606081526000602082015260208501516109858584610bf6565b111561099957610999856108708685610bf6565b600060016109a984610100610c51565b6109b39190610d18565b90508551838682010185831982511617815250805184870111156109d75783860181525b509495945050505050565b6000818311156109f35750816106c8565b50919050565b8151610a058383610663565b506106e983826107a2565b600060208284031215610a2257600080fd5b815180151581146107c957600080fd5b60008060408385031215610a4557600080fd5b50508035926020909101359150565b600060208284031215610a6657600080fd5b813567ffffffffffffffff80821115610a7e57600080fd5b818401915084601f830112610a9257600080fd5b813581811115610aa457610aa4610d67565b604051601f8201601f19908116603f01168101908382118183101715610acc57610acc610d67565b81604052828152876020848701011115610ae557600080fd5b826020860160208301376000928101602001929092525095945050505050565b6000815180845260005b81811015610b2b57602081850181015186830182015201610b0f565b81811115610b3d576000602083870101525b50601f01601f19169290920160200192915050565b60006101006001600160a01b03808c1684528a60208501528960408501528089166060850152507fffffffff00000000000000000000000000000000000000000000000000000000871660808401528560a08401528460c08401528060e0840152610bbf81840185610b05565b9b9a5050505050505050505050565b6001600160a01b03841681528260208201526060604082015260006102e46060830184610b05565b60008219821115610c0957610c09610d51565b500190565b600181815b80851115610c49578160001904821115610c2f57610c2f610d51565b80851615610c3c57918102915b93841c9390800290610c13565b509250929050565b60006107c98383600082610c67575060016106c8565b81610c74575060006106c8565b8160018114610c8a5760028114610c9457610cb0565b60019150506106c8565b60ff841115610ca557610ca5610d51565b50506001821b6106c8565b5060208310610133831016604e8410600b8410161715610cd3575081810a6106c8565b610cdd8383610c0e565b8060001904821115610cf157610cf1610d51565b029392505050565b6000816000190483118215151615610d1357610d13610d51565b500290565b600082821015610d2a57610d2a610d51565b500390565b600082610d4c57634e487b7160e01b600052601260045260246000fd5b500690565b634e487b7160e01b600052601160045260246000fd5b634e487b7160e01b600052604160045260246000fdfea2646970667358221220acd9bc4766cfaee7c73ca7a68c6ff56570986b9bf2fe171134199ddf6abf944c64736f6c63430008070033",
  "linkReferences": {},
  "deployedLinkReferences": {}
}