{
  "_format": "hh-sol-artifact-1",
  "contractName": "MyNFT",
  "sourceName": "contracts/nft_base.sol",
  "abi": [
    {
      "inputs": [],
      "stateMutability": "nonpayable",
      "type": "constructor"
    },
    {
      "anonymous": false,
      "inputs": [
        {
          "indexed": true,
          "internalType": "address",
          "name": "owner",
          "type": "address"
        },
        {
          "indexed": true,
          "internalType": "address",
          "name": "approved",
          "type": "address"
        },
        {
          "indexed": true,
          "internalType": "uint256",
          "name": "tokenId",
          "type": "uint256"
        }
      ],
      "name": "Approval",
      "type": "event"
    },
    {
      "anonymous": false,
      "inputs": [
        {
          "indexed": true,
          "internalType": "address",
          "name": "owner",
          "type": "address"
        },
        {
          "indexed": true,
          "internalType": "address",
          "name": "operator",
          "type": "address"
        },
        {
          "indexed": false,
          "internalType": "bool",
          "name": "approved",
          "type": "bool"
        }
      ],
      "name": "ApprovalForAll",
      "type": "event"
    },
    {
      "anonymous": false,
      "inputs": [
        {
          "indexed": true,
          "internalType": "address",
          "name": "from",
          "type": "address"
        },
        {
          "indexed": true,
          "internalType": "address",
          "name": "to",
          "type": "address"
        },
        {
          "indexed": true,
          "internalType": "uint256",
          "name": "tokenId",
          "type": "uint256"
        }
      ],
      "name": "Transfer",
      "type": "event"
    },
    {
      "inputs": [
        {
          "internalType": "address",
          "name": "to",
          "type": "address"
        },
        {
          "internalType": "uint256",
          "name": "tokenId",
          "type": "uint256"
        }
      ],
      "name": "approve",
      "outputs": [],
      "stateMutability": "nonpayable",
      "type": "function"
    },
    {
      "inputs": [
        {
          "internalType": "address",
          "name": "owner",
          "type": "address"
        }
      ],
      "name": "balanceOf",
      "outputs": [
        {
          "internalType": "uint256",
          "name": "",
          "type": "uint256"
        }
      ],
      "stateMutability": "view",
      "type": "function"
    },
    {
      "inputs": [
        {
          "internalType": "uint256",
          "name": "tokenId",
          "type": "uint256"
        }
      ],
      "name": "getApproved",
      "outputs": [
        {
          "internalType": "address",
          "name": "",
          "type": "address"
        }
      ],
      "stateMutability": "view",
      "type": "function"
    },
    {
      "inputs": [
        {
          "internalType": "address",
          "name": "owner",
          "type": "address"
        },
        {
          "internalType": "address",
          "name": "operator",
          "type": "address"
        }
      ],
      "name": "isApprovedForAll",
      "outputs": [
        {
          "internalType": "bool",
          "name": "",
          "type": "bool"
        }
      ],
      "stateMutability": "view",
      "type": "function"
    },
    {
      "inputs": [
        {
          "internalType": "string",
          "name": "tokenURI",
          "type": "string"
        }
      ],
      "name": "mintToken",
      "outputs": [
        {
          "internalType": "uint256",
          "name": "",
          "type": "uint256"
        }
      ],
      "stateMutability": "nonpayable",
      "type": "function"
    },
    {
      "inputs": [],
      "name": "name",
      "outputs": [
        {
          "internalType": "string",
          "name": "",
          "type": "string"
        }
      ],
      "stateMutability": "view",
      "type": "function"
    },
    {
      "inputs": [
        {
          "internalType": "uint256",
          "name": "tokenId",
          "type": "uint256"
        }
      ],
      "name": "ownerOf",
      "outputs": [
        {
          "internalType": "address",
          "name": "",
          "type": "address"
        }
      ],
      "stateMutability": "view",
      "type": "function"
    },
    {
      "inputs": [
        {
          "internalType": "address",
          "name": "from",
          "type": "address"
        },
        {
          "internalType": "address",
          "name": "to",
          "type": "address"
        },
        {
          "internalType": "uint256",
          "name": "tokenId",
          "type": "uint256"
        }
      ],
      "name": "safeTransferFrom",
      "outputs": [],
      "stateMutability": "nonpayable",
      "type": "function"
    },
    {
      "inputs": [
        {
          "internalType": "address",
          "name": "from",
          "type": "address"
        },
        {
          "internalType": "address",
          "name": "to",
          "type": "address"
        },
        {
          "internalType": "uint256",
          "name": "tokenId",
          "type": "uint256"
        },
        {
          "internalType": "bytes",
          "name": "_data",
          "type": "bytes"
        }
      ],
      "name": "safeTransferFrom",
      "outputs": [],
      "stateMutability": "nonpayable",
      "type": "function"
    },
    {
      "inputs": [
        {
          "internalType": "address",
          "name": "operator",
          "type": "address"
        },
        {
          "internalType": "bool",
          "name": "approved",
          "type": "bool"
        }
      ],
      "name": "setApprovalForAll",
      "outputs": [],
      "stateMutability": "nonpayable",
      "type": "function"
    },
    {
      "inputs": [
        {
          "internalType": "bytes4",
          "name": "interfaceId",
          "type": "bytes4"
        }
      ],
      "name": "supportsInterface",
      "outputs": [
        {
          "internalType": "bool",
          "name": "",
          "type": "bool"
        }
      ],
      "stateMutability": "view",
      "type": "function"
    },
    {
      "inputs": [],
      "name": "symbol",
      "outputs": [
        {
          "internalType": "string",
          "name": "",
          "type": "string"
        }
      ],
      "stateMutability": "view",
      "type": "function"
    },
    {
      "inputs": [
        {
          "internalType": "uint256",
          "name": "tokenId",
          "type": "uint256"
        }
      ],
      "name": "tokenURI",
      "outputs": [
        {
          "internalType": "string",
          "name": "",
          "type": "string"
        }
      ],
      "stateMutability": "view",
      "type": "function"
    },
    {
      "inputs": [
        {
          "internalType": "address",
          "name": "from",
          "type": "address"
        },
        {
          "internalType": "address",
          "name": "to",
          "type": "address"
        },
        {
          "internalType": "uint256",
          "name": "tokenId",
          "type": "uint256"
        }
      ],
      "name": "transferFrom",
      "outputs": [],
      "stateMutability": "nonpayable",
      "type": "function"
    }
  ],
  "bytecode": "0x60806040523480156200001157600080fd5b506040805180820182526005815264135653919560da1b6020808301918252835180850190945260048452631513919560e21b9084015281519192916200005b916000916200007a565b508051620000719060019060208401906200007a565b5050506200015d565b828054620000889062000120565b90600052602060002090601f016020900481019282620000ac5760008555620000f7565b82601f10620000c757805160ff1916838001178555620000f7565b82800160010185558215620000f7579182015b82811115620000f7578251825591602001919060010190620000da565b506200010592915062000109565b5090565b5b808211156200010557600081556001016200010a565b600181811c908216806200013557607f821691505b602082108114156200015757634e487b7160e01b600052602260045260246000fd5b50919050565b6118ef806200016d6000396000f3fe608060405234801561001057600080fd5b50600436106100ea5760003560e01c80636352211e1161008c578063a22cb46511610066578063a22cb465146101e1578063b88d4fde146101f4578063c87b56dd14610207578063e985e9c51461021a57600080fd5b80636352211e146101b357806370a08231146101c657806395d89b41146101d957600080fd5b8063095ea7b3116100c8578063095ea7b31461015757806323b872dd1461016c57806333eba49a1461017f57806342842e0e146101a057600080fd5b806301ffc9a7146100ef57806306fdde0314610117578063081812fc1461012c575b600080fd5b6101026100fd366004611629565b610256565b60405190151581526020015b60405180910390f35b61011f6102f3565b60405161010e919061175c565b61013f61013a3660046116ac565b610385565b6040516001600160a01b03909116815260200161010e565b61016a6101653660046115ff565b61041f565b005b61016a61017a36600461150b565b610551565b61019261018d366004611663565b6105d8565b60405190815260200161010e565b61016a6101ae36600461150b565b610609565b61013f6101c13660046116ac565b610624565b6101926101d43660046114bd565b6106af565b61011f610749565b61016a6101ef3660046115c3565b610758565b61016a610202366004611547565b61081d565b61011f6102153660046116ac565b6108ab565b6101026102283660046114d8565b6001600160a01b03918216600090815260056020908152604080832093909416825291909152205460ff1690565b60006001600160e01b031982167f80ac58cd0000000000000000000000000000000000000000000000000000000014806102b957506001600160e01b031982167f5b5e139f00000000000000000000000000000000000000000000000000000000145b806102ed57507f01ffc9a7000000000000000000000000000000000000000000000000000000006001600160e01b03198316145b92915050565b606060008054610302906117de565b80601f016020809104026020016040519081016040528092919081815260200182805461032e906117de565b801561037b5780601f106103505761010080835404028352916020019161037b565b820191906000526020600020905b81548152906001019060200180831161035e57829003601f168201915b5050505050905090565b6000818152600260205260408120546001600160a01b03166104035760405162461bcd60e51b815260206004820152602c60248201527f4552433732313a20617070726f76656420717565727920666f72206e6f6e657860448201526b34b9ba32b73a103a37b5b2b760a11b60648201526084015b60405180910390fd5b506000908152600460205260409020546001600160a01b031690565b600061042a82610624565b9050806001600160a01b0316836001600160a01b031614156104b45760405162461bcd60e51b815260206004820152602160248201527f4552433732313a20617070726f76616c20746f2063757272656e74206f776e6560448201527f720000000000000000000000000000000000000000000000000000000000000060648201526084016103fa565b336001600160a01b03821614806104d057506104d08133610228565b6105425760405162461bcd60e51b815260206004820152603860248201527f4552433732313a20617070726f76652063616c6c6572206973206e6f74206f7760448201527f6e6572206e6f7220617070726f76656420666f7220616c6c000000000000000060648201526084016103fa565b61054c8383610a3e565b505050565b61055b3382610ab9565b6105cd5760405162461bcd60e51b815260206004820152603160248201527f4552433732313a207472616e736665722063616c6c6572206973206e6f74206f60448201527f776e6572206e6f7220617070726f76656400000000000000000000000000000060648201526084016103fa565b61054c838383610bac565b60006105e8600780546001019055565b60006105f360075490565b90506105ff3382610d86565b6102ed8184610ed5565b61054c8383836040518060200160405280600081525061081d565b6000818152600260205260408120546001600160a01b0316806102ed5760405162461bcd60e51b815260206004820152602960248201527f4552433732313a206f776e657220717565727920666f72206e6f6e657869737460448201527f656e7420746f6b656e000000000000000000000000000000000000000000000060648201526084016103fa565b60006001600160a01b03821661072d5760405162461bcd60e51b815260206004820152602a60248201527f4552433732313a2062616c616e636520717565727920666f7220746865207a6560448201527f726f20616464726573730000000000000000000000000000000000000000000060648201526084016103fa565b506001600160a01b031660009081526003602052604090205490565b606060018054610302906117de565b6001600160a01b0382163314156107b15760405162461bcd60e51b815260206004820152601960248201527f4552433732313a20617070726f766520746f2063616c6c65720000000000000060448201526064016103fa565b3360008181526005602090815260408083206001600160a01b03871680855290835292819020805460ff191686151590811790915590519081529192917f17307eab39ab6107e8899845ad3d59bd9653f200f220920489ca2b5937696c31910160405180910390a35050565b6108273383610ab9565b6108995760405162461bcd60e51b815260206004820152603160248201527f4552433732313a207472616e736665722063616c6c6572206973206e6f74206f60448201527f776e6572206e6f7220617070726f76656400000000000000000000000000000060648201526084016103fa565b6108a584848484610f7e565b50505050565b6000818152600260205260409020546060906001600160a01b03166109385760405162461bcd60e51b815260206004820152603160248201527f45524337323155524953746f726167653a2055524920717565727920666f722060448201527f6e6f6e6578697374656e7420746f6b656e00000000000000000000000000000060648201526084016103fa565b60008281526006602052604081208054610951906117de565b80601f016020809104026020016040519081016040528092919081815260200182805461097d906117de565b80156109ca5780601f1061099f576101008083540402835291602001916109ca565b820191906000526020600020905b8154815290600101906020018083116109ad57829003601f168201915b5050505050905060006109e860408051602081019091526000815290565b90508051600014156109fb575092915050565b815115610a2d578082604051602001610a159291906116f1565b60405160208183030381529060405292505050919050565b610a3684611007565b949350505050565b6000818152600460205260409020805473ffffffffffffffffffffffffffffffffffffffff19166001600160a01b0384169081179091558190610a8082610624565b6001600160a01b03167f8c5be1e5ebec7d5bd14f71427d1e84f3dd0314c0f7b2291e5b200ac8c7c3b92560405160405180910390a45050565b6000818152600260205260408120546001600160a01b0316610b325760405162461bcd60e51b815260206004820152602c60248201527f4552433732313a206f70657261746f7220717565727920666f72206e6f6e657860448201526b34b9ba32b73a103a37b5b2b760a11b60648201526084016103fa565b6000610b3d83610624565b9050806001600160a01b0316846001600160a01b03161480610b785750836001600160a01b0316610b6d84610385565b6001600160a01b0316145b80610a3657506001600160a01b0380821660009081526005602090815260408083209388168352929052205460ff16610a36565b826001600160a01b0316610bbf82610624565b6001600160a01b031614610c3b5760405162461bcd60e51b815260206004820152602960248201527f4552433732313a207472616e73666572206f6620746f6b656e2074686174206960448201527f73206e6f74206f776e000000000000000000000000000000000000000000000060648201526084016103fa565b6001600160a01b038216610cb65760405162461bcd60e51b8152602060048201526024808201527f4552433732313a207472616e7366657220746f20746865207a65726f2061646460448201527f726573730000000000000000000000000000000000000000000000000000000060648201526084016103fa565b610cc1600082610a3e565b6001600160a01b0383166000908152600360205260408120805460019290610cea90849061179b565b90915550506001600160a01b0382166000908152600360205260408120805460019290610d1890849061176f565b9091555050600081815260026020526040808220805473ffffffffffffffffffffffffffffffffffffffff19166001600160a01b0386811691821790925591518493918716917fddf252ad1be2c89b69c2b068fc378daa952ba7f163c4a11628f55a4df523b3ef91a4505050565b6001600160a01b038216610ddc5760405162461bcd60e51b815260206004820181905260248201527f4552433732313a206d696e7420746f20746865207a65726f206164647265737360448201526064016103fa565b6000818152600260205260409020546001600160a01b031615610e415760405162461bcd60e51b815260206004820152601c60248201527f4552433732313a20746f6b656e20616c7265616479206d696e7465640000000060448201526064016103fa565b6001600160a01b0382166000908152600360205260408120805460019290610e6a90849061176f565b9091555050600081815260026020526040808220805473ffffffffffffffffffffffffffffffffffffffff19166001600160a01b03861690811790915590518392907fddf252ad1be2c89b69c2b068fc378daa952ba7f163c4a11628f55a4df523b3ef908290a45050565b6000828152600260205260409020546001600160a01b0316610f5f5760405162461bcd60e51b815260206004820152602e60248201527f45524337323155524953746f726167653a2055524920736574206f66206e6f6e60448201527f6578697374656e7420746f6b656e00000000000000000000000000000000000060648201526084016103fa565b6000828152600660209081526040909120825161054c92840190611392565b610f89848484610bac565b610f95848484846110fd565b6108a55760405162461bcd60e51b815260206004820152603260248201527f4552433732313a207472616e7366657220746f206e6f6e20455243373231526560448201527f63656976657220696d706c656d656e746572000000000000000000000000000060648201526084016103fa565b6000818152600260205260409020546060906001600160a01b03166110945760405162461bcd60e51b815260206004820152602f60248201527f4552433732314d657461646174613a2055524920717565727920666f72206e6f60448201527f6e6578697374656e7420746f6b656e000000000000000000000000000000000060648201526084016103fa565b60006110ab60408051602081019091526000815290565b905060008151116110cb57604051806020016040528060008152506110f6565b806110d584611260565b6040516020016110e69291906116f1565b6040516020818303038152906040525b9392505050565b60006001600160a01b0384163b1561125557604051630a85bd0160e11b81526001600160a01b0385169063150b7a0290611141903390899088908890600401611720565b602060405180830381600087803b15801561115b57600080fd5b505af192505050801561118b575060408051601f3d908101601f1916820190925261118891810190611646565b60015b61123b573d8080156111b9576040519150601f19603f3d011682016040523d82523d6000602084013e6111be565b606091505b5080516112335760405162461bcd60e51b815260206004820152603260248201527f4552433732313a207472616e7366657220746f206e6f6e20455243373231526560448201527f63656976657220696d706c656d656e746572000000000000000000000000000060648201526084016103fa565b805181602001fd5b6001600160e01b031916630a85bd0160e11b149050610a36565b506001949350505050565b6060816112a057505060408051808201909152600181527f3000000000000000000000000000000000000000000000000000000000000000602082015290565b8160005b81156112ca57806112b481611819565b91506112c39050600a83611787565b91506112a4565b60008167ffffffffffffffff8111156112e5576112e561188a565b6040519080825280601f01601f19166020018201604052801561130f576020820181803683370190505b5090505b8415610a365761132460018361179b565b9150611331600a86611834565b61133c90603061176f565b60f81b81838151811061135157611351611874565b60200101907effffffffffffffffffffffffffffffffffffffffffffffffffffffffffffff1916908160001a90535061138b600a86611787565b9450611313565b82805461139e906117de565b90600052602060002090601f0160209004810192826113c05760008555611406565b82601f106113d957805160ff1916838001178555611406565b82800160010185558215611406579182015b828111156114065782518255916020019190600101906113eb565b50611412929150611416565b5090565b5b808211156114125760008155600101611417565b600067ffffffffffffffff808411156114465761144661188a565b604051601f8501601f19908116603f0116810190828211818310171561146e5761146e61188a565b8160405280935085815286868601111561148757600080fd5b858560208301376000602087830101525050509392505050565b80356001600160a01b03811681146114b857600080fd5b919050565b6000602082840312156114cf57600080fd5b6110f6826114a1565b600080604083850312156114eb57600080fd5b6114f4836114a1565b9150611502602084016114a1565b90509250929050565b60008060006060848603121561152057600080fd5b611529846114a1565b9250611537602085016114a1565b9150604084013590509250925092565b6000806000806080858703121561155d57600080fd5b611566856114a1565b9350611574602086016114a1565b925060408501359150606085013567ffffffffffffffff81111561159757600080fd5b8501601f810187136115a857600080fd5b6115b78782356020840161142b565b91505092959194509250565b600080604083850312156115d657600080fd5b6115df836114a1565b9150602083013580151581146115f457600080fd5b809150509250929050565b6000806040838503121561161257600080fd5b61161b836114a1565b946020939093013593505050565b60006020828403121561163b57600080fd5b81356110f6816118a0565b60006020828403121561165857600080fd5b81516110f6816118a0565b60006020828403121561167557600080fd5b813567ffffffffffffffff81111561168c57600080fd5b8201601f8101841361169d57600080fd5b610a368482356020840161142b565b6000602082840312156116be57600080fd5b5035919050565b600081518084526116dd8160208601602086016117b2565b601f01601f19169290920160200192915050565b600083516117038184602088016117b2565b8351908301906117178183602088016117b2565b01949350505050565b60006001600160a01b0380871683528086166020840152508360408301526080606083015261175260808301846116c5565b9695505050505050565b6020815260006110f660208301846116c5565b6000821982111561178257611782611848565b500190565b6000826117965761179661185e565b500490565b6000828210156117ad576117ad611848565b500390565b60005b838110156117cd5781810151838201526020016117b5565b838111156108a55750506000910152565b600181811c908216806117f257607f821691505b6020821081141561181357634e487b7160e01b600052602260045260246000fd5b50919050565b600060001982141561182d5761182d611848565b5060010190565b6000826118435761184361185e565b500690565b634e487b7160e01b600052601160045260246000fd5b634e487b7160e01b600052601260045260246000fd5b634e487b7160e01b600052603260045260246000fd5b634e487b7160e01b600052604160045260246000fd5b6001600160e01b0319811681146118b657600080fd5b5056fea264697066735822122073f978a4f3dc934859a5bc3c1f47e49dd3c7c961d6ad06268c96898de6a8aeb664736f6c63430008070033",
  "linkReferences": {},
  "deployedLinkReferences": {}
}