{
  "_format": "hh-sol-artifact-1",
  "contractName": "ServiceChain",
  "sourceName": "contracts/ServiceChain.sol",
  "abi": [
    {
      "inputs": [],
      "stateMutability": "nonpayable",
      "type": "constructor"
    },
    {
      "anonymous": false,
      "inputs": [
        {
          "indexed": true,
          "internalType": "address",
          "name": "BatchId",
          "type": "address"
        },
        {
          "indexed": true,
          "internalType": "address",
          "name": "Supplier",
          "type": "address"
        },
        {
          "indexed": false,
          "internalType": "address",
          "name": "shipper",
          "type": "address"
        },
        {
          "indexed": true,
          "internalType": "address",
          "name": "Receiver",
          "type": "address"
        }
      ],
      "name": "EquipmentNewBatch",
      "type": "event"
    },
    {
      "anonymous": false,
      "inputs": [
        {
          "indexed": false,
          "internalType": "address",
          "name": "BatchID",
          "type": "address"
        },
        {
          "indexed": true,
          "internalType": "address",
          "name": "EndUser",
          "type": "address"
        },
        {
          "indexed": false,
          "internalType": "uint256",
          "name": "status",
          "type": "uint256"
        }
      ],
      "name": "EquipmentStatus",
      "type": "event"
    },
    {
      "anonymous": false,
      "inputs": [
        {
          "indexed": true,
          "internalType": "address",
          "name": "cryptoAddress",
          "type": "address"
        },
        {
          "indexed": false,
          "internalType": "bytes32",
          "name": "Name",
          "type": "bytes32"
        }
      ],
      "name": "UserRegister",
      "type": "event"
    },
    {
      "anonymous": false,
      "inputs": [
        {
          "indexed": true,
          "internalType": "address",
          "name": "cryptoAddress",
          "type": "address"
        },
        {
          "indexed": false,
          "internalType": "bytes32",
          "name": "Name",
          "type": "bytes32"
        },
        {
          "indexed": false,
          "internalType": "uint256",
          "name": "Role",
          "type": "uint256"
        }
      ],
      "name": "UserRoleRessigne",
      "type": "event"
    },
    {
      "anonymous": false,
      "inputs": [
        {
          "indexed": true,
          "internalType": "address",
          "name": "cryptoAddress",
          "type": "address"
        },
        {
          "indexed": false,
          "internalType": "bytes32",
          "name": "Name",
          "type": "bytes32"
        },
        {
          "indexed": false,
          "internalType": "uint256",
          "name": "Role",
          "type": "uint256"
        }
      ],
      "name": "UserRoleRevoked",
      "type": "event"
    },
    {
      "inputs": [
        {
          "internalType": "address",
          "name": "batchid",
          "type": "address"
        },
        {
          "internalType": "address",
          "name": "cid",
          "type": "address"
        }
      ],
      "name": "EquipmentRecievedAtEndUser",
      "outputs": [],
      "stateMutability": "nonpayable",
      "type": "function"
    },
    {
      "inputs": [],
      "name": "Owner",
      "outputs": [
        {
          "internalType": "address",
          "name": "",
          "type": "address"
        }
      ],
      "stateMutability": "view",
      "type": "function"
    },
    {
      "inputs": [
        {
          "internalType": "address",
          "name": "pid",
          "type": "address"
        }
      ],
      "name": "PackageReceived",
      "outputs": [],
      "stateMutability": "nonpayable",
      "type": "function"
    },
    {
      "inputs": [
        {
          "internalType": "address",
          "name": "batchid",
          "type": "address"
        },
        {
          "internalType": "address",
          "name": "cid",
          "type": "address"
        }
      ],
      "name": "equipmentReceived",
      "outputs": [],
      "stateMutability": "nonpayable",
      "type": "function"
    },
    {
      "inputs": [
        {
          "internalType": "uint256",
          "name": "index",
          "type": "uint256"
        }
      ],
      "name": "getBatchIdByIndexE",
      "outputs": [
        {
          "internalType": "address",
          "name": "BatchID",
          "type": "address"
        }
      ],
      "stateMutability": "view",
      "type": "function"
    },
    {
      "inputs": [
        {
          "internalType": "uint256",
          "name": "index",
          "type": "uint256"
        }
      ],
      "name": "getBatchIdByIndexM",
      "outputs": [
        {
          "internalType": "address",
          "name": "packageID",
          "type": "address"
        }
      ],
      "stateMutability": "view",
      "type": "function"
    },
    {
      "inputs": [
        {
          "internalType": "uint256",
          "name": "index",
          "type": "uint256"
        }
      ],
      "name": "getBatchIdByIndexOP",
      "outputs": [
        {
          "internalType": "address",
          "name": "packageID",
          "type": "address"
        }
      ],
      "stateMutability": "view",
      "type": "function"
    },
    {
      "inputs": [
        {
          "internalType": "uint256",
          "name": "index",
          "type": "uint256"
        }
      ],
      "name": "getBatchIdByIndexPE",
      "outputs": [
        {
          "internalType": "address",
          "name": "packageID",
          "type": "address"
        }
      ],
      "stateMutability": "view",
      "type": "function"
    },
    {
      "inputs": [],
      "name": "getBatchesCountE",
      "outputs": [
        {
          "internalType": "uint256",
          "name": "count",
          "type": "uint256"
        }
      ],
      "stateMutability": "view",
      "type": "function"
    },
    {
      "inputs": [],
      "name": "getBatchesCountOP",
      "outputs": [
        {
          "internalType": "uint256",
          "name": "count",
          "type": "uint256"
        }
      ],
      "stateMutability": "view",
      "type": "function"
    },
    {
      "inputs": [],
      "name": "getBatchesCountPE",
      "outputs": [
        {
          "internalType": "uint256",
          "name": "count",
          "type": "uint256"
        }
      ],
      "stateMutability": "view",
      "type": "function"
    },
    {
      "inputs": [],
      "name": "getBatchesCountS",
      "outputs": [
        {
          "internalType": "uint256",
          "name": "count",
          "type": "uint256"
        }
      ],
      "stateMutability": "view",
      "type": "function"
    },
    {
      "inputs": [
        {
          "internalType": "uint256",
          "name": "index",
          "type": "uint256"
        }
      ],
      "name": "getPackageIDByIndexM",
      "outputs": [
        {
          "internalType": "address",
          "name": "BatchID",
          "type": "address"
        }
      ],
      "stateMutability": "view",
      "type": "function"
    },
    {
      "inputs": [],
      "name": "getPackagesCountS",
      "outputs": [
        {
          "internalType": "uint256",
          "name": "count",
          "type": "uint256"
        }
      ],
      "stateMutability": "view",
      "type": "function"
    },
    {
      "inputs": [
        {
          "internalType": "address",
          "name": "BatchID",
          "type": "address"
        }
      ],
      "name": "getSubContractOP",
      "outputs": [
        {
          "internalType": "address",
          "name": "SubContractOP",
          "type": "address"
        }
      ],
      "stateMutability": "view",
      "type": "function"
    },
    {
      "inputs": [
        {
          "internalType": "address",
          "name": "BatchID",
          "type": "address"
        }
      ],
      "name": "getSubContractPE",
      "outputs": [
        {
          "internalType": "address",
          "name": "SubContractPE",
          "type": "address"
        }
      ],
      "stateMutability": "view",
      "type": "function"
    },
    {
      "inputs": [
        {
          "internalType": "address",
          "name": "User",
          "type": "address"
        }
      ],
      "name": "getUserInfo",
      "outputs": [
        {
          "internalType": "bytes32",
          "name": "name",
          "type": "bytes32"
        },
        {
          "internalType": "bytes32",
          "name": "location",
          "type": "bytes32"
        },
        {
          "internalType": "address",
          "name": "cryptoAddress",
          "type": "address"
        },
        {
          "internalType": "enum ServiceChain.roles",
          "name": "role",
          "type": "uint8"
        }
      ],
      "stateMutability": "view",
      "type": "function"
    },
    {
      "inputs": [
        {
          "internalType": "uint256",
          "name": "index",
          "type": "uint256"
        }
      ],
      "name": "getUserbyIndex",
      "outputs": [
        {
          "internalType": "bytes32",
          "name": "name",
          "type": "bytes32"
        },
        {
          "internalType": "bytes32",
          "name": "location",
          "type": "bytes32"
        },
        {
          "internalType": "address",
          "name": "cryptoAddress",
          "type": "address"
        },
        {
          "internalType": "enum ServiceChain.roles",
          "name": "role",
          "type": "uint8"
        }
      ],
      "stateMutability": "view",
      "type": "function"
    },
    {
      "inputs": [],
      "name": "getUsersCount",
      "outputs": [
        {
          "internalType": "uint256",
          "name": "count",
          "type": "uint256"
        }
      ],
      "stateMutability": "view",
      "type": "function"
    },
    {
      "inputs": [
        {
          "internalType": "address",
          "name": "pid",
          "type": "address"
        },
        {
          "internalType": "uint256",
          "name": "transportertype",
          "type": "uint256"
        },
        {
          "internalType": "address",
          "name": "cid",
          "type": "address"
        }
      ],
      "name": "loadConsingment",
      "outputs": [],
      "stateMutability": "nonpayable",
      "type": "function"
    },
    {
      "inputs": [
        {
          "internalType": "bytes32",
          "name": "Des",
          "type": "bytes32"
        },
        {
          "internalType": "bytes32",
          "name": "RM",
          "type": "bytes32"
        },
        {
          "internalType": "uint256",
          "name": "Quant",
          "type": "uint256"
        },
        {
          "internalType": "address",
          "name": "Shpr",
          "type": "address"
        },
        {
          "internalType": "address",
          "name": "Rcvr",
          "type": "address"
        },
        {
          "internalType": "uint256",
          "name": "RcvrType",
          "type": "uint256"
        }
      ],
      "name": "packageEquipment",
      "outputs": [],
      "stateMutability": "nonpayable",
      "type": "function"
    },
    {
      "inputs": [
        {
          "internalType": "address",
          "name": "userAddress",
          "type": "address"
        },
        {
          "internalType": "uint256",
          "name": "Role",
          "type": "uint256"
        }
      ],
      "name": "reassigneRole",
      "outputs": [],
      "stateMutability": "nonpayable",
      "type": "function"
    },
    {
      "inputs": [
        {
          "internalType": "address",
          "name": "cryptoAddress",
          "type": "address"
        },
        {
          "internalType": "bytes32",
          "name": "Name",
          "type": "bytes32"
        },
        {
          "internalType": "bytes32",
          "name": "Location",
          "type": "bytes32"
        },
        {
          "internalType": "uint256",
          "name": "Role",
          "type": "uint256"
        }
      ],
      "name": "registerUser",
      "outputs": [],
      "stateMutability": "nonpayable",
      "type": "function"
    },
    {
      "inputs": [
        {
          "internalType": "address",
          "name": "userAddress",
          "type": "address"
        }
      ],
      "name": "revokeRole",
      "outputs": [],
      "stateMutability": "nonpayable",
      "type": "function"
    },
    {
      "inputs": [
        {
          "internalType": "address",
          "name": "BatchID",
          "type": "address"
        }
      ],
      "name": "settlementinfo",
      "outputs": [
        {
          "internalType": "uint256",
          "name": "Status",
          "type": "uint256"
        }
      ],
      "stateMutability": "view",
      "type": "function"
    },
    {
      "inputs": [
        {
          "internalType": "address",
          "name": "BatchID",
          "type": "address"
        },
        {
          "internalType": "address",
          "name": "Shipper",
          "type": "address"
        },
        {
          "internalType": "address",
          "name": "Receiver",
          "type": "address"
        }
      ],
      "name": "transferEquipmentOtoP",
      "outputs": [],
      "stateMutability": "nonpayable",
      "type": "function"
    },
    {
      "inputs": [
        {
          "internalType": "address",
          "name": "BatchID",
          "type": "address"
        },
        {
          "internalType": "address",
          "name": "Shipper",
          "type": "address"
        },
        {
          "internalType": "address",
          "name": "Receiver",
          "type": "address"
        }
      ],
      "name": "transferEquipmentPtoE",
      "outputs": [],
      "stateMutability": "nonpayable",
      "type": "function"
    },
    {
      "inputs": [
        {
          "internalType": "address",
          "name": "BatchID",
          "type": "address"
        },
        {
          "internalType": "uint256",
          "name": "Status",
          "type": "uint256"
        }
      ],
      "name": "updateSettlementStatus",
      "outputs": [],
      "stateMutability": "nonpayable",
      "type": "function"
    }
  ],
  "bytecode": "0x608060405234801561001057600080fd5b50600080546001600160a01b031916331790556139ae806100326000396000f3fe60806040523480156200001157600080fd5b5060043610620001e95760003560e01c80638d92b9b3116200010d578063af39ccf511620000a3578063c0957746116200007a578063c0957746146200046a578063cd9ed5f01462000481578063cdc135201462000498578063e739448a14620004af57600080fd5b8063af39ccf5146200041d578063b4a99a4e146200044c578063bd5c46b4146200046057600080fd5b80639d8d34f111620000e45780639d8d34f114620003cf5780639e3b9afe14620003e6578063a421b0f414620003fd578063a4a1e263146200041457600080fd5b80638d92b9b31462000397578063923f645a14620003a1578063986c913914620003b857600080fd5b80633e90c05111620001835780635a15a6db116200015a5780635a15a6db14620003055780636386c1c7146200031c57806373f08eb3146200036957806380e52e3f146200038057600080fd5b80633e90c05114620002cd5780634f0ca9ac14620002d757806358581eff14620002ee57600080fd5b806323b52c8611620001c457806323b52c8614620002645780632becfd04146200027b578063373d5c1814620002855780633b24cb18146200029e57600080fd5b80630bcc756814620001ee578063108329f814620002225780631321585c146200024b575b600080fd5b62000205620001ff36600462002481565b620004c6565b6040516001600160a01b0390911681526020015b60405180910390f35b620002396200023336600462002481565b62000599565b604051620002199493929190620024b5565b620002556200060f565b60405190815260200162000219565b620002556200027536600462002226565b620006b5565b62000255620006eb565b6200029c620002963660046200231b565b6200078f565b005b62000205620002af36600462002226565b6001600160a01b039081166000908152600760205260409020541690565b6200025562000958565b6200029c620002e836600462002226565b620009fe565b62000205620002ff36600462002481565b62000b49565b620002056200031636600462002481565b62000c19565b620002396200032d36600462002226565b6001600160a01b03908116600090815260016020819052604090912080549181015460029091015491939092821691600160a01b900460ff1690565b6200029c6200037a3660046200234a565b62000ccf565b6200029c6200039136600462002226565b62000f15565b62000255620010bf565b6200029c620003b2366004620022dd565b6200117f565b62000205620003c936600462002481565b62001388565b6200029c620003e03660046200231b565b6200143e565b62000205620003f736600462002481565b62001685565b6200029c6200040e3660046200224d565b62001739565b60025462000255565b620002056200042e36600462002226565b6001600160a01b039081166000908152600a60205260409020541690565b60005462000205906001600160a01b031681565b62000255620018c4565b6200029c6200047b3660046200228b565b62001968565b6200029c620004923660046200228b565b62001b51565b6200029c620004a93660046200224d565b62001d39565b6200029c620004c03660046200241e565b62002017565b6000600133600090815260016020526040902060020154600160a01b900460ff166006811115620004fb57620004fb62002500565b146200055a5760405162461bcd60e51b8152602060048201526024808201527f4f6e6c7920737570706c6965722063616e2063616c6c20746869732066756e636044820152633a34b7b760e11b60648201526084015b60405180910390fd5b3360009081526003602052604090208054839081106200057e576200057e62002516565b6000918252602090912001546001600160a01b031692915050565b6000806000806200060060028681548110620005b957620005b962002516565b60009182526020808320909101546001600160a01b03908116835260019182905260409092208054918101546002909101549193909282169160ff600160a01b9091041690565b93509350935093509193509193565b6000600133600090815260016020526040902060020154600160a01b900460ff16600681111562000644576200064462002500565b14620006a15760405162461bcd60e51b815260206004820152602560248201527f4f6e6c7920537570706c6965722043616e2063616c6c20746869732066756e636044820152643a34b7b71760d91b606482015260840162000551565b503360009081526004602052604090205490565b6001600160a01b0381166000908152600c602052604081205460ff166004811115620006e557620006e562002500565b92915050565b6000600133600090815260016020526040902060020154600160a01b900460ff16600681111562000720576200072062002500565b146200077b5760405162461bcd60e51b8152602060048201526024808201527f4f6e6c7920737570706c6965722063616e2063616c6c20746869732066756e636044820152633a34b7b760e11b606482015260840162000551565b503360009081526003602052604090205490565b6000546001600160a01b03163314620007f65760405162461bcd60e51b815260206004820152602260248201527f4f6e6c79206f776e65722063616e2063616c6c20746869732066756e6374696f604482015261371760f11b606482015260840162000551565b60006001600160a01b038316600090815260016020526040902060020154600160a01b900460ff16600681111562000832576200083262002500565b1415620008825760405162461bcd60e51b815260206004820152601360248201527f55736572206e6f74207265676973746572656400000000000000000000000000604482015260640162000551565b80600681111562000897576200089762002500565b6001600160a01b0383166000908152600160205260409020600201805460ff60a01b1916600160a01b836006811115620008d557620008d562002500565b02179055506001600160a01b038216600081815260016020526040902080546002909101547f4c8b3f61ed94356876db0fec52d6a7c6aeaf772c4e0ca8f6da74331cc0f687cc9190600160a01b900460ff1660068111156200093b576200093b62002500565b604080519283526020830191909152015b60405180910390a25050565b6000600333600090815260016020526040902060020154600160a01b900460ff1660068111156200098d576200098d62002500565b14620009ea5760405162461bcd60e51b815260206004820152602560248201527f4f6e6c79204f70657261746f722043616e2063616c6c20746869732066756e636044820152643a34b7b71760d91b606482015260840162000551565b503360009081526006602052604090205490565b600133600090815260016020526040902060020154600160a01b900460ff16600681111562000a315762000a3162002500565b1462000a8c5760405162461bcd60e51b8152602060048201526024808201527f4f6e6c7920737570706c6965722063616e2063616c6c20746869732066756e636044820152633a34b7b760e11b606482015260840162000551565b604051630a57332d60e31b81523360048201526001600160a01b038216906352b9996890602401602060405180830381600087803b15801562000ace57600080fd5b505af115801562000ae3573d6000803e3d6000fd5b505050506040513d601f19601f8201168201806040525081019062000b0991906200249b565b503360009081526003602090815260408220805460018101825590835291200180546001600160a01b0319166001600160a01b0392909216919091179055565b6000600533600090815260016020526040902060020154600160a01b900460ff16600681111562000b7e5762000b7e62002500565b1462000bf5576040805162461bcd60e51b81526020600482015260248101919091527f4f6e6c79204f70657261746f72206f722063757272656e74206f776e6572206f60448201527f66207061636b6167652063616e2063616c6c20746869732066756e6374696f6e606482015260840162000551565b336000908152600b602052604090208054839081106200057e576200057e62002516565b6000600333600090815260016020526040902060020154600160a01b900460ff16600681111562000c4e5762000c4e62002500565b1462000cab5760405162461bcd60e51b815260206004820152602560248201527f4f6e6c79204f70657261746f722043616e2063616c6c20746869732066756e636044820152643a34b7b71760d91b606482015260840162000551565b3360009081526006602052604090208054839081106200057e576200057e62002516565b600233600090815260016020526040902060020154600160a01b900460ff16600681111562000d025762000d0262002500565b1462000d775760405162461bcd60e51b815260206004820152602760248201527f4f6e6c79205472616e73706f727465722063616e2063616c6c2074686973206660448201527f756e6374696f6e00000000000000000000000000000000000000000000000000606482015260840162000551565b6000821162000dc95760405162461bcd60e51b815260206004820152601f60248201527f5472616e73706f727465722054797065206d75737420626520646566696e6500604482015260640162000551565b816001141562000e4d576040517f638e9a3d0000000000000000000000000000000000000000000000000000000081523360048201526001600160a01b0384169063638e9a3d906024015b600060405180830381600087803b15801562000e2f57600080fd5b505af115801562000e44573d6000803e3d6000fd5b50505050505050565b816002141562000ea4576040517f202f850d0000000000000000000000000000000000000000000000000000000081526001600160a01b038416600482018190523360248301529063202f850d9060440162000e14565b816003141562000f10576040517fe6841a7a0000000000000000000000000000000000000000000000000000000081526001600160a01b038416600482018190523360248301529063e6841a7a90604401600060405180830381600087803b15801562000e2f57600080fd5b505050565b6000546001600160a01b0316331462000f7c5760405162461bcd60e51b815260206004820152602260248201527f4f6e6c79206f776e65722063616e2063616c6c20746869732066756e6374696f604482015261371760f11b606482015260840162000551565b60006001600160a01b038216600090815260016020526040902060020154600160a01b900460ff16600681111562000fb85762000fb862002500565b1415620010085760405162461bcd60e51b815260206004820152601360248201527f55736572206e6f74207265676973746572656400000000000000000000000000604482015260640162000551565b6001600160a01b038116600081815260016020526040902080546002909101547fb5f04dfc1ccfefb366c4dc7a23670362462e0a415afb89d8cba1fb657e264c969190600160a01b900460ff16600681111562001069576200106962002500565b6040805192835260208301919091520160405180910390a26001600160a01b03166000908152600160205260409020600201805460ff60a01b191674060000000000000000000000000000000000000000179055565b6000600533600090815260016020526040902060020154600160a01b900460ff166006811115620010f457620010f462002500565b146200116b576040805162461bcd60e51b81526020600482015260248101919091527f4f6e6c79204f70657261746f72206f722063757272656e74206f776e6572206f60448201527f66207061636b6167652063616e2063616c6c20746869732066756e6374696f6e606482015260840162000551565b50336000908152600b602052604090205490565b6000546001600160a01b03163314620011e65760405162461bcd60e51b815260206004820152602260248201527f4f6e6c79206f776e65722063616e2063616c6c20746869732066756e6374696f604482015261371760f11b606482015260840162000551565b60006001600160a01b038516600090815260016020526040902060020154600160a01b900460ff16600681111562001222576200122262002500565b14620012715760405162461bcd60e51b815260206004820152601760248201527f5573657220416c72656164792072656769737465726564000000000000000000604482015260640162000551565b6001600160a01b038416600081815260016020819052604090912085815590810184905560020180546001600160a01b0319169091179055806006811115620012be57620012be62002500565b6001600160a01b0385166000908152600160205260409020600201805460ff60a01b1916600160a01b836006811115620012fc57620012fc62002500565b0217905550600280546001810182556000919091527f405787fa12a823e0f2b7631cc41b3ba8828b3321ca811111fa75cd3aa3bb5ace0180546001600160a01b0319166001600160a01b0386169081179091556040518481527f33a7170f028b1e4f5ba321064a00ed820856a920c7f9c6636fbcf385427b1b0f9060200160405180910390a250505050565b6000600133600090815260016020526040902060020154600160a01b900460ff166006811115620013bd57620013bd62002500565b146200141a5760405162461bcd60e51b815260206004820152602560248201527f4f6e6c7920537570706c6965722043616e2063616c6c20746869732066756e636044820152643a34b7b71760d91b606482015260840162000551565b3360009081526004602052604090208054839081106200057e576200057e62002516565b600533600090815260016020526040902060020154600160a01b900460ff16600681111562001471576200147162002500565b148015620014ff5750816001600160a01b031663726414786040518163ffffffff1660e01b815260040160606040518083038186803b158015620014b457600080fd5b505afa158015620014c9573d6000803e3d6000fd5b505050506040513d601f19601f82011682018060405250810190620014ef919062002386565b604001516001600160a01b031633145b620015735760405162461bcd60e51b815260206004820152603f60248201527f4f6e6c7920456e6455736572206f722063757272656e74206f776e6572206f6660448201527f207061636b6167652063616e2063616c6c20746869732066756e6374696f6e00606482015260840162000551565b60016001600160a01b0383166000908152600c602052604090205460ff166004811115620015a557620015a562002500565b14620015f45760405162461bcd60e51b815260206004820152601c60248201527f65717569706d656e74204d75737420626520617420456e645573657200000000604482015260640162000551565b80600481111562001609576200160962002500565b6001600160a01b0383166000908152600c60205260409020805460ff191660018360048111156200163e576200163e62002500565b0217905550604080516001600160a01b03841681526020810183905233917f4de8632c866793c377e94cafab2dbd8d99720040cc494a073ccfbbb5d549845f91016200094c565b6000600433600090815260016020526040902060020154600160a01b900460ff166006811115620016ba57620016ba62002500565b14620017155760405162461bcd60e51b8152602060048201526024808201527f4f6e6c7920506172746e65722043616e2063616c6c20746869732066756e637460448201526334b7b71760e11b606482015260840162000551565b3360009081526009602052604090208054839081106200057e576200057e62002516565b600533600090815260016020526040902060020154600160a01b900460ff1660068111156200176c576200176c62002500565b14620017c75760405162461bcd60e51b8152602060048201526024808201527f4f6e6c7920456e64557365722043616e2063616c6c20746869732066756e637460448201526334b7b71760e11b606482015260840162000551565b6040517f81e03fef0000000000000000000000000000000000000000000000000000000081526001600160a01b0383811660048301523360248301528216906381e03fef90604401600060405180830381600087803b1580156200182a57600080fd5b505af11580156200183f573d6000803e3d6000fd5b5050336000908152600b602090815260408220805460018082018355918452919092200180546001600160a01b0319166001600160a01b0387161790559150620018869050565b6001600160a01b0383166000908152600c60205260409020805460ff19166001836004811115620018bb57620018bb62002500565b02179055505050565b6000600433600090815260016020526040902060020154600160a01b900460ff166006811115620018f957620018f962002500565b14620019545760405162461bcd60e51b8152602060048201526024808201527f4f6e6c7920506172746e65722043616e2063616c6c20746869732066756e637460448201526334b7b71760e11b606482015260840162000551565b503360009081526009602052604090205490565b600433600090815260016020526040902060020154600160a01b900460ff1660068111156200199b576200199b62002500565b14801562001a295750826001600160a01b031663726414786040518163ffffffff1660e01b815260040160606040518083038186803b158015620019de57600080fd5b505afa158015620019f3573d6000803e3d6000fd5b505050506040513d601f19601f8201168201806040525081019062001a19919062002386565b602001516001600160a01b031633145b62001a9d5760405162461bcd60e51b815260206004820152603f60248201527f4f6e6c7920506172746e6572206f722063757272656e74206f776e6572206f6660448201527f207061636b6167652063616e2063616c6c20746869732066756e6374696f6e00606482015260840162000551565b60008333848460405162001ab190620021ea565b6001600160a01b039485168152928416602084015290831660408301529091166060820152608001604051809103906000f08015801562001af6573d6000803e3d6000fd5b5033600090815260096020908152604080832080546001810182559084528284200180546001600160a01b039586166001600160a01b03199182168117909255989094168352600a9091529020805490951617909355505050565b600333600090815260016020526040902060020154600160a01b900460ff16600681111562001b845762001b8462002500565b14801562001c0f5750826001600160a01b031663726414786040518163ffffffff1660e01b815260040160606040518083038186803b15801562001bc757600080fd5b505afa15801562001bdc573d6000803e3d6000fd5b505050506040513d601f19601f8201168201806040525081019062001c02919062002386565b516001600160a01b031633145b62001c85576040805162461bcd60e51b81526020600482015260248101919091527f4f6e6c79204f70657261746f72206f722063757272656e74206f776e6572206f60448201527f66207061636b6167652063616e2063616c6c20746869732066756e6374696f6e606482015260840162000551565b60008333848460405162001c9990620021f8565b6001600160a01b039485168152928416602084015290831660408301529091166060820152608001604051809103906000f08015801562001cde573d6000803e3d6000fd5b5033600090815260066020908152604080832080546001810182559084528284200180546001600160a01b039586166001600160a01b0319918216811790925598909416835260079091529020805490951617909355505050565b600333600090815260016020526040902060020154600160a01b900460ff16600681111562001d6c5762001d6c62002500565b148062001da95750600433600090815260016020526040902060020154600160a01b900460ff16600681111562001da75762001da762002500565b145b62001e1d5760405162461bcd60e51b815260206004820152603060248201527f4f6e6c79204f70657261746f7220616e6420506172746e65722063616e20636160448201527f6c6c20746869732066756e6374696f6e00000000000000000000000000000000606482015260840162000551565b604051630a57332d60e31b81523360048201526000906001600160a01b038416906352b9996890602401602060405180830381600087803b15801562001e6257600080fd5b505af115801562001e77573d6000803e3d6000fd5b505050506040513d601f19601f8201168201806040525081019062001e9d91906200249b565b9050806001141562001ee6573360009081526005602090815260408220805460018101825590835291200180546001600160a01b0319166001600160a01b038516179055505050565b806002141562000f1057336000908152600560209081526040808320805460018101825590845291832090910180546001600160a01b0319166001600160a01b03871690811790915581517f72641478000000000000000000000000000000000000000000000000000000008152915190916372641478916004808301926060929190829003018186803b15801562001f7e57600080fd5b505afa15801562001f93573d6000803e3d6000fd5b505050506040513d601f19601f8201168201806040525081019062001fb9919062002386565b516001600160a01b03161462000f10576040517f2c7fca840000000000000000000000000000000000000000000000000000000081526001600160a01b038481166004830152336024830152831690632c7fca849060440162000e14565b600133600090815260016020526040902060020154600160a01b900460ff1660068111156200204a576200204a62002500565b14620020a55760405162461bcd60e51b8152602060048201526024808201527f4f6e6c7920737570706c6965722063616e2063616c6c20746869732066756e636044820152633a34b7b760e11b606482015260840162000551565b80620020f45760405162461bcd60e51b815260206004820152601c60248201527f52656365697665722054797065206d75737420626520646566696e6500000000604482015260640162000551565b6000338787878787876040516200210b9062002206565b6001600160a01b0397881681526020810196909652604086019490945260608501929092528416608084015290921660a082015260c081019190915260e001604051809103906000f08015801562002167573d6000803e3d6000fd5b5033600081815260046020908152604080832080546001810182559084529282902090920180546001600160a01b0319166001600160a01b03868116918217909255925189821681529495508716937f04015b8470019dd0ab98ca121f2f46b23edccf73e496d2663ec1fb030a37eba8910160405180910390a450505050505050565b610480806200255c83390190565b61048080620029dc83390190565b610b1d8062002e5c83390190565b8051620022218162002542565b919050565b6000602082840312156200223957600080fd5b8135620022468162002542565b9392505050565b600080604083850312156200226157600080fd5b82356200226e8162002542565b91506020830135620022808162002542565b809150509250929050565b600080600060608486031215620022a157600080fd5b8335620022ae8162002542565b92506020840135620022c08162002542565b91506040840135620022d28162002542565b809150509250925092565b60008060008060808587031215620022f457600080fd5b8435620023018162002542565b966020860135965060408601359560600135945092505050565b600080604083850312156200232f57600080fd5b82356200233c8162002542565b946020939093013593505050565b6000806000606084860312156200236057600080fd5b83356200236d8162002542565b9250602084013591506040840135620022d28162002542565b6000606082840312156200239957600080fd5b82601f830112620023a957600080fd5b6040516060810181811067ffffffffffffffff82111715620023cf57620023cf6200252c565b604052808360608101861015620023e557600080fd5b60005b60038110156200241357620023fd8262002214565b83526020928301929190910190600101620023e8565b509195945050505050565b60008060008060008060c087890312156200243857600080fd5b86359550602087013594506040870135935060608701356200245a8162002542565b925060808701356200246c8162002542565b8092505060a087013590509295509295509295565b6000602082840312156200249457600080fd5b5035919050565b600060208284031215620024ae57600080fd5b5051919050565b848152602081018490526001600160a01b03831660408201526080810160078310620024f157634e487b7160e01b600052602160045260246000fd5b82606083015295945050505050565b634e487b7160e01b600052602160045260246000fd5b634e487b7160e01b600052603260045260246000fd5b634e487b7160e01b600052604160045260246000fd5b6001600160a01b03811681146200255857600080fd5b5056fe608060405234801561001057600080fd5b5060405161048038038061048083398101604081905261002f916100b6565b600080546001600160a01b039485166001600160a01b0319918216811790925560018054968616968216969096179095556002805486169091179055600380549284169290941691909117909255600480546001600160a81b0319169290911691909117905561010a565b80516001600160a01b03811681146100b157600080fd5b919050565b600080600080608085870312156100cc57600080fd5b6100d58561009a565b93506100e36020860161009a565b92506100f16040860161009a565b91506100ff6060860161009a565b905092959194509250565b610367806101196000396000f3fe608060405234801561001057600080fd5b50600436106100415760003560e01c806381e03fef14610046578063d2f3fcc71461005b578063e6841a7a14610075575b600080fd5b6100596100543660046102cf565b610088565b005b6100636101a3565b60405190815260200160405180910390f35b6100596100833660046102cf565b6101c9565b6004546001600160a01b038281169116146101105760405162461bcd60e51b815260206004820152603060248201527f4f6e6c79204173736f6369617465642072656365697665722063616e2063616c60448201527f6c20746869732066756e6374696f6e2e0000000000000000000000000000000060648201526084015b60405180910390fd5b600480546002919060ff60a01b1916600160a01b8302179055506040517fdaa49af20000000000000000000000000000000000000000000000000000000081526001600160a01b03828116600483015283169063daa49af2906024015b600060405180830381600087803b15801561018757600080fd5b505af115801561019b573d6000803e3d6000fd5b505050505050565b600454600090600160a01b900460ff1660028111156101c4576101c4610302565b905090565b6003546001600160a01b0382811691161461024c5760405162461bcd60e51b815260206004820152602f60248201527f4f6e6c79204173736f63696174656420736869707065722063616e2063616c6c60448201527f20746869732066756e6374696f6e2e00000000000000000000000000000000006064820152608401610107565b60048054600160a01b60ff60a01b1982161782556002546040517fe49b13bb0000000000000000000000000000000000000000000000000000000081526001600160a01b03928316938101939093528116602483015283169063e49b13bb9060440161016d565b80356001600160a01b03811681146102ca57600080fd5b919050565b600080604083850312156102e257600080fd5b6102eb836102b3565b91506102f9602084016102b3565b90509250929050565b7f4e487b7100000000000000000000000000000000000000000000000000000000600052602160045260246000fdfea2646970667358221220f11cab4e8376fd1d91d18be1e44264d5f50693311ba446ac17ce4f083ee02e3464736f6c63430008070033608060405234801561001057600080fd5b5060405161048038038061048083398101604081905261002f916100b6565b600080546001600160a01b039485166001600160a01b0319918216811790925560018054968616968216969096179095556002805486169091179055600380549284169290941691909117909255600480546001600160a81b0319169290911691909117905561010a565b80516001600160a01b03811681146100b157600080fd5b919050565b600080600080608085870312156100cc57600080fd5b6100d58561009a565b93506100e36020860161009a565b92506100f16040860161009a565b91506100ff6060860161009a565b905092959194509250565b610367806101196000396000f3fe608060405234801561001057600080fd5b50600436106100415760003560e01c8063202f850d146100465780632c7fca841461005b578063d2f3fcc71461006e575b600080fd5b6100596100543660046102cf565b610088565b005b6100596100693660046102cf565b6101a9565b61007661028d565b60405190815260200160405180910390f35b6003546001600160a01b038281169116146101105760405162461bcd60e51b815260206004820152602f60248201527f4f6e6c79204173736f63696174656420736869707065722063616e2063616c6c60448201527f20746869732066756e6374696f6e2e000000000000000000000000000000000060648201526084015b60405180910390fd5b60048054600160a01b60ff60a01b1982161782556002546040517fb2abfff80000000000000000000000000000000000000000000000000000000081526001600160a01b03928316938101939093528116602483015283169063b2abfff8906044015b600060405180830381600087803b15801561018d57600080fd5b505af11580156101a1573d6000803e3d6000fd5b505050505050565b6004546001600160a01b0382811691161461022c5760405162461bcd60e51b815260206004820152603060248201527f4f6e6c79204173736f6369617465642072656365697665722063616e2063616c60448201527f6c20746869732066756e6374696f6e2e000000000000000000000000000000006064820152608401610107565b600480546002919060ff60a01b1916600160a01b8302179055506040517f6d92c52f0000000000000000000000000000000000000000000000000000000081526001600160a01b038281166004830152831690636d92c52f90602401610173565b600454600090600160a01b900460ff1660028111156102ae576102ae610302565b905090565b80356001600160a01b03811681146102ca57600080fd5b919050565b600080604083850312156102e257600080fd5b6102eb836102b3565b91506102f9602084016102b3565b90509250929050565b7f4e487b7100000000000000000000000000000000000000000000000000000000600052602160045260246000fdfea26469706673582212204e6bf7196649e13d78c4a5cc97eb91e02e744d6b0d1d3b10a41538d5c6f9d46564736f6c63430008070033608060405234801561001057600080fd5b50604051610b1d380380610b1d83398101604081905261002f916100ee565b600080546001600160a01b03199081166001600160a01b038a81169182179093556005805483169091179055600188815560028890556003879055600480549092169286169290921790558114156100a157600680546001600160a01b0319166001600160a01b0384161790556100c6565b80600214156100c657600780546001600160a01b0319166001600160a01b0384161790555b50505050505050610158565b80516001600160a01b03811681146100e957600080fd5b919050565b600080600080600080600060e0888a03121561010957600080fd5b610112886100d2565b9650602088015195506040880151945060608801519350610135608089016100d2565b925061014360a089016100d2565b915060c0880151905092959891949750929550565b6109b6806101676000396000f3fe608060405234801561001057600080fd5b50600436106100a35760003560e01c8063b2abfff811610076578063d2f3fcc71161005b578063d2f3fcc714610162578063daa49af21461016a578063e49b13bb1461017d57600080fd5b8063b2abfff81461010b578063c0f374091461011e57600080fd5b806352b99968146100a8578063638e9a3d146100ce5780636d92c52f146100e357806372641478146100f6575b600080fd5b6100bb6100b63660046108c2565b610190565b6040519081526020015b60405180910390f35b6100e16100dc3660046108c2565b610424565b005b6100e16100f13660046108c2565b6105ff565b6100fe610689565b6040516100c59190610917565b6100e16101193660046108e4565b6106c4565b600554600154600254600354600454604080516001600160a01b0396871681526020810195909552840192909252606083015291909116608082015260a0016100c5565b6100bb610777565b6100e16101783660046108c2565b61079d565b6100e161018b3660046108e4565b610801565b6006546000906001600160a01b03838116911614806101bc57506007546001600160a01b038381169116145b6102335760405162461bcd60e51b815260206004820152603d60248201527f4f6e6c79204173736f6369617465204f70657261746f72206f7220446973747260448201527f7562757465722063616e2063616c6c20746869732066756e6374696f6e00000060648201526084015b60405180910390fd5b600854600190600160a01b900460ff16600681111561025457610254610951565b10156102a25760405162461bcd60e51b815260206004820152601960248201527f50726f64756374206e6f74207069636b65642075702079657400000000000000604482015260640161022a565b6006546001600160a01b0383811691161480156102dc57506001600854600160a01b900460ff1660068111156102da576102da610951565b145b1561035e576008805460ff60a01b19167403000000000000000000000000000000000000000017905560065460045460408051600281526003602082015281516001600160a01b03948516949093169230927f7e89c4b1a4e2b51aae84eb1f90e8a34cb792ece5ac5cb63db4830c891220b28d928290030190a4506001919050565b6007546001600160a01b03838116911614801561039857506002600854600160a01b900460ff16600681111561039657610396610951565b145b1561041f576008805460ff60a01b191674040000000000000000000000000000000000000000179055600754600480546040805160038152602081019390935280516001600160a01b03948516949092169230927f7e89c4b1a4e2b51aae84eb1f90e8a34cb792ece5ac5cb63db4830c891220b28d929181900390910190a4506002919050565b919050565b6004546001600160a01b038281169116146104a75760405162461bcd60e51b815260206004820152602d60248201527f4f6e6c79204173736f636961746520536869707065722063616e2063616c6c2060448201527f746869732066756e6374696f6e00000000000000000000000000000000000000606482015260840161022a565b6000600854600160a01b900460ff1660068111156104c7576104c7610951565b146105145760405162461bcd60e51b815260206004820152601c60248201527f5061636b616765206d75737420626520617420537570706c6965722e00000000604482015260640161022a565b6006546001600160a01b03161561058d576008805460ff60a01b1916600160a01b17905560065460045460408051600180825260208201526001600160a01b03938416939092169130917f7e89c4b1a4e2b51aae84eb1f90e8a34cb792ece5ac5cb63db4830c891220b28d91015b60405180910390a450565b6008805460ff60a01b19167402000000000000000000000000000000000000000017905560075460045460408051600180825260208201526001600160a01b03938416939092169130917f7e89c4b1a4e2b51aae84eb1f90e8a34cb792ece5ac5cb63db4830c891220b28d9101610582565b6007546001600160a01b0382811691161461065c5760405162461bcd60e51b815260206004820152601f60248201527f5468697320506172746e6572206973206e6f74204173736f6369617465642e00604482015260640161022a565b60045b6008805460ff60a01b1916600160a01b83600681111561068157610681610951565b021790555050565b61069161088d565b50604080516060810182526006546001600160a01b03908116825260075481166020830152600854169181019190915290565b6006546001600160a01b038281169116146107215760405162461bcd60e51b815260206004820181905260248201527f74686973204f70657261746f72206973206e6f74204173736f6369617465642e604482015260640161022a565b6007805473ffffffffffffffffffffffffffffffffffffffff19166001600160a01b03841617905560025b6008805460ff60a01b1916600160a01b83600681111561076e5761076e610951565b02179055505050565b600854600090600160a01b900460ff16600681111561079857610798610951565b905090565b6008546001600160a01b038281169116146107fa5760405162461bcd60e51b815260206004820152601f60248201527f5468697320456e6455736572206973206e6f74204173736f6369617465642e00604482015260640161022a565b600661065f565b6007546001600160a01b0382811691161461085e5760405162461bcd60e51b815260206004820152601f60248201527f7468697320506172746e6572206973206e6f74204173736f6369617465642e00604482015260640161022a565b6008805473ffffffffffffffffffffffffffffffffffffffff19166001600160a01b038416179055600561074c565b60405180606001604052806003906020820280368337509192915050565b80356001600160a01b038116811461041f57600080fd5b6000602082840312156108d457600080fd5b6108dd826108ab565b9392505050565b600080604083850312156108f757600080fd5b610900836108ab565b915061090e602084016108ab565b90509250929050565b60608101818360005b60038110156109485781516001600160a01b0316835260209283019290910190600101610920565b50505092915050565b7f4e487b7100000000000000000000000000000000000000000000000000000000600052602160045260246000fdfea2646970667358221220cc01fc34de64cfd58d331078c6fda2818d629d8dfaf54dee44874fcd9390a09664736f6c63430008070033a2646970667358221220ebeac6804a973e7b033e6bf075e4e24211ae2c3d05155f36e5c38536a9d02a2b64736f6c63430008070033",
  "linkReferences": {},
  "deployedLinkReferences": {}
}